BL51 BANKED LINKER/LOCATER V6.00                                                        03/23/2018  16:08:28  PAGE 1


BL51 BANKED LINKER/LOCATER V6.00, INVOKED BY:
C:\KEIL\C51\BIN\BL51.EXE STARTUP.obj, embedded_assign6.obj TO embedded_assign6


MEMORY MODEL: SMALL


INPUT MODULES INCLUDED:
  STARTUP.obj (?C_STARTUP)
  embedded_assign6.obj (EMBEDDED_ASSIGN6)
  C:\KEIL\C51\LIB\C51S.LIB (?C_INIT)


LINK MAP OF MODULE:  embedded_assign6 (?C_STARTUP)


            TYPE    BASE      LENGTH    RELOCATION   SEGMENT NAME
            -----------------------------------------------------

            * * * * * * *   D A T A   M E M O R Y   * * * * * * *
            REG     0000H     0008H     ABSOLUTE     "REG BANK 0"
            DATA    0008H     000BH     UNIT         ?DT?EMBEDDED_ASSIGN6
            IDATA   0013H     0001H     UNIT         ?STACK

            * * * * * * *   C O D E   M E M O R Y   * * * * * * *
            CODE    0000H     0003H     ABSOLUTE     
            CODE    0003H     0003H     ABSOLUTE     
                    0006H     000DH                  *** GAP ***
            CODE    0013H     0003H     ABSOLUTE     
                    0016H     07EAH                  *** GAP ***
            CODE    0800H     008CH     UNIT         ?C_C51STARTUP
            CODE    088CH     004BH     UNIT         ?PR?EXT2?EMBEDDED_ASSIGN6
            CODE    08D7H     0047H     UNIT         ?PR?EXT?EMBEDDED_ASSIGN6
            CODE    091EH     0031H     UNIT         ?PR?MAIN?EMBEDDED_ASSIGN6
            CODE    094FH     0026H     UNIT         ?PR?_DELAY?EMBEDDED_ASSIGN6
            CODE    0975H     0010H     UNIT         ?C_INITSEG



OVERLAY MAP OF MODULE:   embedded_assign6 (?C_STARTUP)


SEGMENT
  +--> CALLED SEGMENT
---------------------
?C_C51STARTUP
  +--> ?PR?MAIN?EMBEDDED_ASSIGN6
  +--> ?C_INITSEG

?PR?MAIN?EMBEDDED_ASSIGN6
  +--> ?PR?_DELAY?EMBEDDED_ASSIGN6

*** NEW ROOT ***************************************************

?PR?EXT?EMBEDDED_ASSIGN6
  +--> ?PR?_DELAY?EMBEDDED_ASSIGN6

*** NEW ROOT ***************************************************
BL51 BANKED LINKER/LOCATER V6.00                                                      03/23/2018  16:08:28  PAGE 2



?PR?EXT2?EMBEDDED_ASSIGN6
  +--> ?PR?_DELAY?EMBEDDED_ASSIGN6



SYMBOL TABLE OF MODULE:  embedded_assign6 (?C_STARTUP)

  VALUE           TYPE          NAME
  ----------------------------------

  -------         MODULE        ?C_STARTUP
  C:0800H         SEGMENT       ?C_C51STARTUP
  I:0013H         SEGMENT       ?STACK
  C:0000H         PUBLIC        ?C_STARTUP
  D:00E0H         SYMBOL        ACC
  D:00F0H         SYMBOL        B
  D:0083H         SYMBOL        DPH
  D:0082H         SYMBOL        DPL
  N:0000H         SYMBOL        IBPSTACK
  N:0100H         SYMBOL        IBPSTACKTOP
  N:0080H         SYMBOL        IDATALEN
  C:0803H         SYMBOL        IDATALOOP
  N:0000H         SYMBOL        PBPSTACK
  N:0100H         SYMBOL        PBPSTACKTOP
  N:0000H         SYMBOL        PDATALEN
  N:0000H         SYMBOL        PDATASTART
  N:0000H         SYMBOL        PPAGE
  N:0000H         SYMBOL        PPAGEENABLE
  D:00A0H         SYMBOL        PPAGE_SFR
  D:0081H         SYMBOL        SP
  C:0800H         SYMBOL        STARTUP1
  N:0000H         SYMBOL        XBPSTACK
  N:0000H         SYMBOL        XBPSTACKTOP
  N:0000H         SYMBOL        XDATALEN
  N:0000H         SYMBOL        XDATASTART
  C:0000H         LINE#         126
  C:0800H         LINE#         133
  C:0802H         LINE#         134
  C:0803H         LINE#         135
  C:0804H         LINE#         136
  C:0806H         LINE#         185
  C:0809H         LINE#         196
  -------         ENDMOD        ?C_STARTUP

  -------         MODULE        EMBEDDED_ASSIGN6
  C:0000H         SYMBOL        _ICE_DUMMY_
  D:0080H         PUBLIC        P0
  D:0090H         PUBLIC        P1
  D:00A0H         PUBLIC        P2
  C:088CH         PUBLIC        ext2
  D:00A8H         PUBLIC        IE
  C:091EH         PUBLIC        main
  D:0008H         PUBLIC        count
  D:000AH         PUBLIC        led
  B:0088H.0       PUBLIC        IT0
  B:0088H.2       PUBLIC        IT1
BL51 BANKED LINKER/LOCATER V6.00                                                      03/23/2018  16:08:28  PAGE 3


  C:08D7H         PUBLIC        ext
  B:00A0H.6       PUBLIC        led1
  B:00A0H.7       PUBLIC        led2
  C:094FH         PUBLIC        _delay
  -------         PROC          _DELAY
  D:0006H         SYMBOL        tick
  -------         DO            
  D:0004H         SYMBOL        i
  D:0002H         SYMBOL        j
  -------         ENDDO         
  C:094FH         LINE#         6
  C:094FH         LINE#         8
  C:095FH         LINE#         9
  C:0974H         LINE#         10
  -------         ENDPROC       _DELAY
  -------         PROC          EXT
  C:08D7H         LINE#         11
  C:08ECH         LINE#         12
  C:08F3H         LINE#         13
  C:08F5H         LINE#         14
  C:08FBH         LINE#         15
  C:0903H         LINE#         16
  C:090BH         LINE#         17
  C:090BH         LINE#         18
  -------         ENDPROC       EXT
  -------         PROC          EXT2
  C:088CH         LINE#         20
  C:08A1H         LINE#         21
  C:08A8H         LINE#         22
  C:08AAH         LINE#         23
  C:08B6H         LINE#         24
  C:08BEH         LINE#         25
  C:08C4H         LINE#         26
  -------         ENDPROC       EXT2
  -------         PROC          MAIN
  C:091EH         LINE#         30
  C:091EH         LINE#         31
  C:0921H         LINE#         32
  C:0924H         LINE#         33
  C:0926H         LINE#         34
  C:0928H         LINE#         35
  C:0928H         LINE#         36
  C:092BH         LINE#         37
  C:0932H         LINE#         39
  C:0935H         LINE#         40
  C:0938H         LINE#         41
  C:093BH         LINE#         43
  C:093EH         LINE#         44
  C:0941H         LINE#         45
  C:0944H         LINE#         47
  C:0947H         LINE#         48
  C:094AH         LINE#         49
  C:094DH         LINE#         50
  -------         ENDPROC       MAIN
  -------         ENDMOD        EMBEDDED_ASSIGN6

******************************************************************************
BL51 BANKED LINKER/LOCATER V6.00                                                      03/23/2018  16:08:28  PAGE 4


* RESTRICTED VERSION WITH 0800H BYTE CODE SIZE LIMIT; USED: 010DH BYTE (13%) *
******************************************************************************

Program Size: data=20.0 xdata=0 code=398
LINK/LOCATE RUN COMPLETE.  0 WARNING(S),  0 ERROR(S)
